:0400000009EF04F010
:1000080000C018F001C017F00CC016F00DC015F0B4
:10001800CD909E904D5202E04D0656D0640E4D6E26
:100028004F6A68DBC3CF00F0C4CF01F028DA9A0E1C
:10003800046E990E056E010E066E800E076E33DA99
:10004800ECDA00C046F001C047F000C04FF001C034
:1000580050F0380E516E000E526E6BDB000E475C8E
:1000680002E1480E465C02E2838409D0000E006E6D
:100078004750005C02E146504B08D8A083944F6A71
:10008800010E506E190E516E000E526EA1D94F6AB4
:100098000A0E506E380E516E000E526E99D983A416
:1000A8000AD0020E4F6E010E506E2D0E516E000ECC
:1000B800526E8ED909D0020E4F6E010E506E230E6D
:1000C800516E000E526E84D9CF6ACE6ACD8018C0A8
:1000D80000F017C001F016C00CF015C00DF01100AB
:0400E8000000120002
:1000EC00080E0C6E230E0D6E0D2EFED70C2EFCD7AB
:0200FC001200F0
:0C00FE00100E0D6E0D2EFED7000012003B
:0E010A00026A016A006A086A036A000E1200A7
:10011800086A096A100E0C6E013408360936045054
:10012800085E0550D8A0053C095ED8B007D0045039
:1001380008260550D8B0053C0926D8900036013667
:060148000C2EEAD71200A4
:10014E00000160BF02D0829C01D0828C60BD02D0C3
:10015E00829A01D0828A60BB02D0829801D08288B6
:10016E0060B902D0829401D082844EB002D08280D7
:10017E0001D082908282B1DF829260B702D0829CDF
:10018E0001D0828C60B502D0829A01D0828A60B38F
:10019E0002D0829801D0828860B102D0829401D0C0
:1001AE0082844EB002D0828001D08290828295DF0E
:0E01BE0082924EA002D093DF01D09ADF120091
:1001CC000B840BAEF1EF00F0010E036E026A016AB4
:0A01DC00006A0A360232FF0E12001C
:0801E6000AAE029E000E120099
:1001EE000B820BAE01EF01F0036802680168006834
:0801FE000A360232FF0E120066
:080206000B6A0B86FF0E1200CB
:0C020E004E9059C060F09CDF4E80120042
:10021A000B800BAE19EF01F0026A0AAEFF0E026EF6
:0C022A00016E006E0A360232FF0E120058
:100236005D6A050E5D5C0AE25D505B24E16E000EB0
:100246005C20E26E200EE66E5D2AF3D75D505B24DD
:10025600E16E000E5C20E26EE66A5D065D505B2490
:100266005E6E000E5C205F6E0A0E046E000E056E5A
:1002760059C000F05AC001F04CDF08C000F009C0B8
:1002860001F0300E00265EC0E1FF5FC0E2FF00C055
:10029600E6FF0A0E046E000E056E59C000F05AC045
:1002A60001F037DF00C059F001C05AF0000E011806
:1002B60002E1000E001801E102D05D06CFD7120060
:0A02C600070E0D6E0D2EFED712007C
:1002D0000C6A0E6A0250D8A481EF01F001C002F04E
:1002E00000C001F0006A0E860250D8A481EF01F030
:1002F00001C002F0016A0E960E880250D8B493EF46
:1003000001F00E50035ED8A4D8A098EF01F0D89069
:1003100002BE9DEF01F0003601360236032E88EF53
:1003200001F098EF01F0010E0C6EEFDEA0EF01F08E
:10033000020E0C6E4BDFA0EF01F0040E0C6E53DFCB
:020340001200A9
:100342009492949094949498949A949C8292829089
:10035200829C829A82988294C8DEC7DEC6DE828838
:1003620082848282C0DE8292C0DE8282BCDE82927F
:10037200BCDE8282B8DE8292B8DE82948282B3DEF2
:100382008292B3DE8282AFDE82928298828C8282F5
:10039200AADE8292AADE829C82848282A4DE829279
:1003A20082948282A0DE8292A0DE82829CDE82928F
:1003B2008284828298DE829298DE8294828293DEA6
:1003C2008292828C828A8288828482828CDE82926B
:0603D2008CDE4E801200DB
:1003D8000FD0800E4F6E19D0C00E4F6E16D0940EEF
:1003E8004F6E13D0D40E4F6E10D0800E4F6E0DD0BE
:1003F8004F50010AEEE04F50020AEEE04F50030A58
:10040800EEE04F50040AEEE0F0D75004006E4F5073
:10041800002600C04FF000C060F095DE4E90536A91
:1004280053505124E96E000E5220EA6EEE520BE052
:1004380053505124E96E000E5220EA6EEECF59F067
:0A044800E2DE532AEDD74E801200C9
:100452000900F5CFE6FF0006FBE10106F9E1120013
:10046200FF0E486EFF0E496EFF0E4A6EFF0E4B6E78
:10047200C26A371C006E0050C116070EC012C08E31
:04048200C280120022
:100486000050086E0150006E016A026A036A0B6A28
:100496000C6A960E036E0A6A00C001F008C000F0EE
:0804A600086A026A12DF12006D
:1004AE000450000A12E10550000A0FE10650000A3E
:1004BE000CE10750000A09E1FF0E006EFF0E016EFF
:1004CE007F0E026EFF0E036EA4D0086A096A0750F3
:1004DE00D8B402EF03F00350D8B406EF03F0025085
:1004EE0006180A6E028E068E0E6A02C008F001C051
:1004FE000CF000C00DF004500D5E0550D8A0053C68
:10050E000C5E0650D8A0063C085E086A0C6A0D6A9E
:10051E00D8A099EF02F0D8900232013200320832A0
:10052E00010E0E6E0750035ED8A0A6EF02F07E0EEF
:10053E000E240326D8B00AEF03F0ACEF02F07E0EC5
:10054E000E240326D8A00EEF03F0180E0B6E0D36F8
:10055E000C3608360036013602360E360450005E72
:10056E000550D8A0053C015E0650D8A0063C025EA0
:10057E0006340E120EA0C7EF02F00D80D2EF02F07D
:10058E00045000260550D8B0053C01260650D8B0C0
:10059E00062802260D900B2EAEEF02F0F8EF02F0B9
:1005AE00D8900036013602360E360450005E0550E5
:1005BE00D8A0053C015E0650D8A0063C025E06346B
:1005CE000E10010B0D26D8B00C2AD8B4082AD8A4C8
:1005DE00F8EF02F008320C320D32032AD8B40AEFCB
:1005EE0003F00AAE089E0850026E0C50016E0D50BC
:1005FE00006E10EF03F0010EFFDD10EF03F0020EA0
:10060E007DDD10EF03F0040EEBDD10EF03F0080EAE
:04061E00D6DD120013
:100622000B6A0C6A0A6A0350D8B45BEF03F0028EBD
:100632008E0E035E03BE23EF03F0D8B423EF03F064
:100642005FEF03F0036C080E035CD8A03AEF03F0EF
:10065200036E013602C001F0026A080E035CD8A0E4
:100662003AEF03F00136016A0350D8A4D89044EF60
:1006720003F00350D8B444EF03F0D89002320132B1
:10068200032E3EEF03F00BBC01A051EF03F0D8A004
:1006920051EF03F0012AD8B4022A02BE6EEF03F032
:1006A2000AAE73EF03F0021E011E012AD8B4022A19
:1006B20073EF03F0026A016A73EF03F00B800BAE73
:1006C20077EF03F0026A0AAE77EF03F0FF0E026ED5
:1006D200016E0A36023277EF03F0010E0C6E9CDDDA
:1006E20079EF03F0000E0C6E79EF03F0FF0E0C6E43
:0A06F2000150006E0250016E12006C
:1006FC00C26A371C006E0050C116070EC012C08EA5
:10070C004FC000F000360090003600900050C2122E
:10071C00C280D3DDC282C2A201D0FDD7C4CF01F00A
:0E072C00006AC3500012000E0112C2901200AB
:10073A00556A566A4FC057F050C058F0800E50188C
:10074A00006E800E005C02E1000E4F5C0BE2010EAF
:10075A00556E000E566E4F500008576E50C058F036
:10076A00000E585657C059F058C05AF051C05BF0A5
:10077A0052C05CF05BDD060E536E000E546E000E26
:10078A00006E5450005C02E15350000819E25350C5
:10079A005124E16E54505220E26E010E535C006EF9
:1007AA00000E5458016E00505124E96E0150522037
:1007BA00EA6EEECFE6FF010E535E000E545ADFD703
:1007CA0051C0E1FF52C0E2FF200EE66E55505610AE
:1007DA001AE0536A546A53505124E96E5450522015
:1007EA00EA6EEE50200A03E1534A542AF4D7010E66
:1007FA00535E000E545A53505124E16E5450522005
:08080A00E26E2D0EE66E1200F5
:1008120031EC04F0550E4C6E010E926E030E936E87
:10082200956A1EDE8DDDD09EF19EF28EF28C9D8049
:040832009E80FFD7CE
:1008620010EE19F01F0E006E010E016E360EF66EBE
:0E087200080EF76E000EF86E29EC02F0120070
:0A083600542E20617475616C3A00C5
:0A0840004465736C696761646F0022
:0A084A004C696761646F20202000F4
:010854003073
:0C08550054656D7020617475616C3A0090
:020000040030CA
:0E000000000C1E1EFF8381FF0FC00FE00F409B
:00000001FF
