:1000000042EF07F00000000000EF00F000000000E9
:0A0010000000000000000000F3D71C
:04001C0000001200CE
:10002000080E0C6E230E0D6E0D2EFED70C2EFCD777
:020030001200BC
:0C003200100E0D6E0D2EFED70000120007
:10003E000B820BAE29EF00F00368026801680068BE
:08004E000A360232FF0E120017
:0E005600026A016A006A086A036A000E12005C
:100064000B840BAE3DEF00F0010E036E026A016AD1
:0A007400006A0A360232FF0E120085
:08007E000AAE029E000E120002
:100086005EBE02D0839E01D0838E5EBC02D0839C6E
:1000960001D0838C5EBA02D0839A01D0838A5EB87F
:1000A60002D0839801D083882DB002D0838001D0FE
:1000B60083908382B0DF83925EB602D0839E01D0A6
:1000C600838E5EB402D0839C01D0838C5EB202D054
:1000D600839A01D0838A5EB002D0839801D0838848
:1000E6002DB002D0838001D08390838294DF8392E7
:0C00F6002DA002D092DF01D099DF120093
:10010200086A096A000E0762036406EF01F00250F2
:1001120006180A6E075003267E0ED8A097EF00F04D
:10012200035ED8B00AEF01F09BEF00F0035ED8A0A7
:100132000EEF01F0028E068E02C00EF001C00BF02F
:1001420000C00DF000500402F4CF0CF00150050283
:10015200F4CF00F0F3CF08F00402F3500C26F45071
:100162000822000E00220D500502F3500C26F45016
:100172000822000E002202500402F3500826F45016
:10018200002202500502016A000E0122F3500026ED
:10019200F45001220D500602F3500826F4500022BA
:1001A200026A000E012202220B500602F3500026C0
:1001B200F4500122000E02220E500602F3500126D4
:1001C200F450022202BEEEEF00F00836003601368D
:1001D20002360306D8B40EEF01F001EF01F0D88029
:1001E200800E08640030000E002201220222D8A0F4
:1001F20001EF01F0023201320032034A0AEF01F04C
:100202000AAE029E000E10EF01F0010E23DF10EF86
:1002120001F0020E13DF10EF01F0040E22DF1200D4
:100222000D6A086A0050D8B4000C04180A6E0ABE9F
:100232000D1E0B6A04AE02D0041E042A00AE02D0C8
:10024200001E002A005004100A6E0ABE1FD004507D
:10025200085E003600340836045008260036060EC2
:100262000C6E00340836045000B0085E00A0082668
:1002720000360C2EF6D700A008260BB015D00DAE16
:10028200000C001E002A081E082A000C04AE09D029
:1002920000BE04D00050086E006AF1D7006A002A3E
:1002A200000C001E0B2AD3D7082A0450085CD8A4DD
:0E02B200E6D7086A002A00AEE2D7FF0C120061
:0802C0000B6A0B86FF0E120011
:1002C8000A6A0350D8A40A800750D8A40A820A50A0
:1002D800D8B4C7EF01F0030AD8B480EF01F00AB030
:1002E8007BEF01F006AEC5EF01F0C3EF01F002AEFF
:1002F800C3EF01F0C5EF01F00250800B0A6E029EB9
:100308000650800B069E0A18D8B491EF01F00A50E7
:10031800D8B4C3EF01F0C5EF01F00750035CD8B4BF
:100328009BEF01F0D8A0B7EF01F0BDEF01F0065048
:10033800025CD8B4A5EF01F0D8A0B7EF01F0BDEF8B
:1003480001F00550015CD8B4AFEF01F0D8A0B7EFC9
:1003580001F0BDEF01F00450005CD8B4C7EF01F024
:10036800D8B0BDEF01F00A52D8B4C5EF01F0C3EF21
:1003780001F00A52D8B4C3EF01F0C5EF01F0D880FC
:0E0388001200D8901200D880D8841200120003
:100396005AC004F05BC005F004C002F005C003F0CB
:1003A600044A052A5CC000F05DC001F05C4A5D2A83
:1003B60000C0E9FF01C0EAFF02C0E1FF03C0E2FF9F
:1003C600EECFE6FF02C0E9FF03C0EAFFEE5201E00E
:0C03D600E3D75AC000F05BC001F0120039
:0C03E2002D905AC05EF04EDE2D801200FF
:1003EE000CB039EF02F00CA2DFEF02F00E6A000E35
:1003FE00026450EF02F0F00E0214D8A41BEF02F0CC
:10040E00023A01380F0B02260138F00B016E00384C
:10041E000F0B01260038F00B006E08380F0B00266C
:10042E000838F00B086E0E84D89002BE34EF02F03E
:10043E0008360036013602360E2A02BE34EF02F0BE
:10044E0008360036013602360E2A02BE34EF02F0AE
:10045E0008360036013602360E2A0E500364D5EFEA
:10046E0002F0035E0BBC08AEDAEF02F0D880800E0D
:10047E0008640030000E002201220222D8A0DAEF1A
:10048E0002F0023201320032034ADFEF02F0DAEFFD
:10049E0002F001C002F000C001F008C000F0086ACE
:1004AE00000E0E86026487EF02F0F00E0214D8A43E
:1004BE006FEF02F0023A01380F0B02260138F00BF3
:1004CE00016E00380F0B01260038F00B006E0E8403
:1004DE00D89002BE34EF02F00036013602360E2AF4
:1004EE0002BE34EF02F00036013602360E2A02BE8C
:1004FE0034EF02F00036013602360E2A34EF02F0E7
:10050E0001C002F000C001F0006A000E0E960E88C7
:10051E000264B4EF02F0F00E0214D8A49FEF02F0C2
:10052E00023A01380F0B02260138F00B016E0E84D1
:10053E00D89002BE34EF02F0013602360E2A02BE09
:10054E0034EF02F0013602360E2A02BE34EF02F00C
:10055E00013602360E2A34EF02F001C002F0016AB3
:10056E00000E0E860264E4EF02F0F00E0214D8A420
:10057E00C3EF02F0023A0E84D89002BE34EF02F0BE
:10058E0002360E2A02BE34EF02F002360E2A02BEE8
:10059E0034EF02F002360E2A34EF02F0010E0C6E2A
:1005AE005ADDE7EF02F0020E0C6E62DDE7EF02F0AD
:1005BE00040E0C6E3DDDE7EF02F0080E0C6E44DD0E
:0205CE00120019
:1005D0000B6A0A6A096A00500402F4CF09F0F3CFEB
:1005E00008F001500502F4CF0BF0F3CF0AF00050F1
:1005F0000502F3500926F4500A22E86A0B22015042
:100600000402F3500926F4500A22E86A0B2208C0BB
:1006100000F009C001F00AC002F00BC003F01200A4
:10062000CB50010F006E016A000E012248C004F099
:10063000000E056ECDDF060E026E00C004F001C094
:1006400005F0025005E005320432059EFF0FFAD78F
:10065000040E016E04C000F0015004E0003600906A
:10066000FF0FFBD7300E0014036E04C000F005C06E
:1006700001F001320032019E01320032019E00C0C1
:0C068000BBFF0F0EBA160350BA12120096
:10068C000900F5CFE6FF0006FBE10106F9E11200D7
:10069C00959295909598959A959C959E839283901A
:1006AC00839E839C839A8398B5DCB4DCB3DC838A09
:1006BC0083888382ADDC8392ADDC8382A9DC839258
:1006CC00A9DC8382A5DC8392A5DC83988382A0DCE1
:1006DC008392A0DC83829CDC8392839A838E8382B8
:1006EC0097DC839297DC839E8388838291DC839250
:1006FC00839883828DDC83928DDC838289DC839268
:10070C008388838285DC839285DC8398838280DC7A
:10071C008392838E838C838A8388838279DC839211
:06072C0079DC2D801200B3
:08073200BB6ABA98BA9A1200E2
:0A073A009492CA840C0EBA12120049
:100744000FD0800E486E19D0C00E486E16D0940E8D
:10075400486E13D0D40E486E10D0800E486E0DD063
:100764004850010AEEE04850020AEEE04850030AFD
:10077400EEE04850040AEEE0F0D74904006E485019
:10078400002600C048F000C05EF07BDC2D904C6A6F
:100794004C504A24E96E000E4B20EA6EEE520BE0F8
:1007A4004C504A24E96E000E4B20EA6EEECF5AF00C
:0A07B40016DE4C2AEDD72D8012004E
:1007BE000450000A12E10550000A0FE10650000A2B
:1007CE000CE10750000A09E1FF0E006EFF0E016EEC
:1007DE007F0E026EFF0E036EA7D0086A096A0750DD
:1007EE00D8B48AEF04F00350D8B48EEF04F0025060
:1007FE0006180A6E028E068E0E6A02C008F001C03E
:10080E000CF000C00DF004500D5E0550D8A0053C54
:10081E000C5E0650D8A0063C085E086A0C6A0D6A8B
:10082E00D8A021EF04F0D890023201320032083203
:10083E00010E0E6E0750035ED8A02EEF04F07E0E52
:10084E000E240326D8B093EF04F034EF04F07E0E9E
:10085E000E240326D8A098EF04F0180E0B6E0D365A
:10086E000C3608360036013602360E360450005E5F
:10087E000550D8A0053C015E0650D8A0063C025E8D
:10088E0006340E120EA04FEF04F00D805AEF04F056
:10089E00045000260550D8B0053C01260650D8B0AD
:1008AE00062802260D900B2E36EF04F080EF04F092
:1008BE00D8900036013602360E360450005E0550D2
:1008CE00D8A0053C015E0650D8A0063C025E063458
:1008DE000E10010B0D26D8B00C2AD8B4082AD8A4B5
:1008EE0080EF04F008320C320D32032AD8B493EFA5
:1008FE0004F00AAE089E0850026E0C50016E0D50A8
:10090E00006E9BEF04F0010ED4DC9BEF04F0020EA0
:10091E002BEC00F09BEF04F0040E1FEC00F09BEFAD
:0A092E0004F0080E32EC00F0120095
:10093800556A566A576A586A596A48C051F049C098
:1009480052F04AC053F04BC054F05450FF0A08E12B
:100958005350FF0A05E15250FF0A02E15150FF0AC5
:100968000CE14CC05AF04DC05BF0150E5C6E000EE9
:100978005D6E0DDD030E006E5AD2010E4F6E53AE42
:100988000FD0800E5318006E00C053F04F2A562A1D
:100998004CC0E1FF4DC0E2FF2D0EE66E4C4A4D2AD9
:1009A800000E006E541808E10050531805E100507D
:1009B800521802E15150000A0BE14CC05AF04DC0E8
:1009C8005BF01D0E5C6E000E5D6EE1DC006A2FD2DE
:1009D8005450FF0A08E15350000A05E15250000A3A
:1009E80002E15150000A0CE14CC05AF04DC05BF0D6
:1009F800190E5C6E000E5D6ECADC4FC000F017D297
:100A0800000E046E000E056E000E066E7F0E076E59
:100A180051C000F052C001F053C002F054C003F0BE
:100A28004FDC010ED8B0000E006E00521CE051C021
:100A380000F052C001F053C002F054C003F0000EA1
:100A4800046E000E056E200E066E820E076E81EC97
:100A580000F000C051F001C052F002C053F003C0D2
:100A680054F05906CDD7000E046E000E056E200E08
:100A7800066E820E076E51C000F052C001F053C0DE
:100A880002F054C003F01CDC000ED8B0010E006E5A
:100A980000521CE051C000F052C001F053C002F0F7
:100AA80054C003F0CD0E046ECC0E056E4C0E066ECF
:100AB8007B0E076E81EC00F000C051F001C052F0CF
:100AC80002C053F003C054F0592ACDD7FF0E511479
:100AD800086EFF0E5214096E7F0E53140A6E000E34
:100AE80054140B6E08C004F009C005F00AC006F0E3
:100AF8000BC007F004360490053606360736000E9C
:100B08005114006E000E5214016E000E5314026E42
:100B1800FF0E5414036E00C051F001C052F002C021
:100B280053F003C054F004505110006E0550521099
:100B3800016E06505310026E07505410036E00C029
:100B480051F001C052F002C053F003C054F07F0EC0
:100B5800545C006E00C050F0010E546E00C004F0EA
:100B680051C000F052C001F053C002F054C003F06D
:100B7800045007E000360090013602360336FF0FB6
:100B8800F8D700C051F001C052F002C053F003C0C2
:100B980054F04CC0E1FF4DC0E2FF5450300FE66EF8
:100BA8004C4A4D2A562A800E5918006E800E010AAA
:100BB800005C08E3800E060A006E800E5918005C7F
:100BC80001E30BD04CC0E1FF4DC0E2FF2E0EE66EF4
:100BD8004C4A4D2A010E556E562A060E506E50503C
:100BE800000A58E0546A51C000F052C001F053C0E6
:100BF80002F054C003F00036009001360236033686
:100C08000036009001360236033651500026525005
:100C18000122535002225450032200C051F001C057
:100C280052F002C053F003C054F051C000F052C05B
:100C380001F053C002F054C003F0003600900136B2
:100C48000236033600C051F001C052F002C053F022
:100C580003C054F04CC0E1FF4DC0E2FF5450300FC8
:100C6800E66E4C4A4D2A562A5550000A11E159069B
:100C78005950000A0DE1010E586E4CC0E1FF4DC0FD
:100C8800E2FF2E0EE66E4C4A4D2A010E556E562A8C
:100C98005006A5D75850010AD8B45606FF0E4C2462
:100CA800E96EFF0E4D20EA6EEE502E0A05E1010EA8
:100CB8004C5E000E4D5A5606800E000A006E800EDD
:100CC8005918005C02E2010E576E800E5918006E2A
:100CD800800E000A005C02E2020E576E59C050F006
:100CE800800E090A006E800E5918005C02E3572A2C
:100CF80002D0020E572657505624016E026A000E83
:100D08000222800E0218006E800E005C02E14E5036
:100D1800015C0AE24CC0E1FF4DC0E2FF300EE66E16
:100D28004C4A4D2A562AE7D75950000A43E04CC08E
:100D3800E1FF4DC0E2FF650EE66E4C4A4D2A800E7B
:100D48005918006E800E000A005C0BE24CC0E1FFEF
:100D58004DC0E2FF2D0EE66E4C4A4D2A5950000850
:100D6800596E59C050F0800E090A006E800E59184D
:100D7800005C0FE20A0E046E50C000F011EC01F0A6
:100D88004CC0E1FF4DC0E2FF0050300FE66E4C4A08
:100D98004D2A0A0E046E50C000F011EC01F008C094
:100DA80000F04CC0E1FF4DC0E2FF0050300FE66E8E
:100DB8004C4A4D2A57505624006E00C056F04E50EB
:100DC800005C016E01C050F0800E000A006E800EBB
:100DD8000118005C0EE2800E000A006E800E5018AA
:100DE800005C06E25006010E4C5E000E4D5AF3D729
:100DF80018D0800E5018006E800E000A005C11E2B8
:100E0800800E5018006E800E000A005C0AE2502A1C
:100E18004CC0E1FF4DC0E2FF300EE66E4C4A4D2A51
:100E2800EFD74CC0E1FF4DC0E2FFE66A006A12004E
:100E38000000000000000000C280C2820000000024
:100E480000000000C3CF30F0000E316EC4CF2EF08A
:060E5800000E2F6E1200D7
:100E5E000050086E0150006E0250016E0350026E7B
:100E6E00036A0B6A0C6A9E0E036E0A6A020E0C6E01
:060E7E00F7EC01F0120088
:100E8400C7EC07F009DC0C0E5E6E43EC00F0CA8080
:100E9400CA92F90ECB6E4BDC800E486E10EC03F058
:100EA4004ADC0E0EC16EC26A940EC06E030E0B6E47
:100EB4008A0E0C6E550E0D6E0D2EFED70C2EFCD721
:100EC4000B2EFAD700000000B5DF2EC001F0006A37
:100ED40000503024406E01503120416E000E426EAD
:100EE400436E40C000F041C001F042C002F043C074
:100EF40003F0B3DFAD0E046EAA0E056E4C0E066E43
:100F0400860E076E5ADC00C044F001C045F002C0F2
:100F140046F003C047F000C048F001C049F002C0E9
:100F24004AF003C04BF0320E4C6E000E4D6E060EAE
:100F34004E6E00DD486A050E496E1F0E4A6E000EA5
:100F44004B6EA2EC03F0020E486E040E496E320E94
:100F54004A6E000E4B6EA2EC03F0020E486E090EB0
:100F6400496E260E4A6E000E4B6EA2EC03F09ED71D
:020F7400FFD7A5
:100F8E0010EE15F0180E006E010E016E760EF66E56
:0E0F9E000F0EF76E000EF86E46EC03F0120018
:040F76004E614E007A
:040F7A00494E460096
:020F7E00300041
:070F800054454E53414F00A0
:070F870020566F6C7473002B
:020000040030CA
:0E000000000C1E1EFF8381FF0FC00FE00F409B
:00000001FF
