:10000000D9EF06F00000000000EF00F00000000053
:0A0010000000000000000000F3D71C
:04001C0000001200CE
:10002000080E0C6E230E0D6E0D2EFED70C2EFCD777
:020030001200BC
:0C003200100E0D6E0D2EFED70000120007
:08003E000AAE029E000E120042
:100046000B820BAE2DEF00F00368026801680068B2
:080056000A360232FF0E12000F
:0E005E00026A016A006A086A036A000E120054
:10006C005EBE02D0839E01D0838E5EBC02D0839C88
:10007C0001D0838C5EBA02D0839A01D0838A5EB899
:10008C0002D0839801D0838845B002D0838001D000
:10009C0083908382BDDF83925EB602D0839E01D0B3
:1000AC00838E5EB402D0839C01D0838C5EB202D06E
:1000BC00839A01D0838A5EB002D0839801D0838862
:1000CC0045B002D0838001D083908382A1DF8392DC
:0C00DC0045A002D09FDF01D0A6DF12007B
:1000E8000B840BAE7FEF00F0010E036E026A016A0B
:0A00F800006A0A360232FF0E120001
:100102005AC004F05BC005F004C002F005C003F061
:10011200044A052A5CC000F05DC001F05C4A5D2A19
:1001220000C0E9FF01C0EAFF02C0E1FF03C0E2FF35
:10013200EECFE6FF02C0E9FF03C0EAFFEE5201E0A4
:0C014200E3D75AC000F05BC001F01200CF
:10014E000A6A0350D8A40A800750D8A40A820A501B
:10015E00D8B40AEF01F0030AD8B4C3EF00F00AB026
:10016E00BEEF00F006AE08EF01F006EF01F002AEB2
:10017E0006EF01F008EF01F00250800B0A6E029EAE
:10018E000650800B069E0A18D8B4D4EF00F00A5021
:10019E00D8B406EF01F008EF01F00750035CD8B4B5
:1001AE00DEEF00F0D8A0FAEF00F000EF01F00650FD
:1001BE00025CD8B4E8EF00F0D8A0FAEF00F000EF40
:1001CE0001F00550015CD8B4F2EF00F0D8A0FAEFC0
:1001DE0000F000EF01F00450005CD8B40AEF01F01B
:1001EE00D8B000EF01F00A52D8B408EF01F006EFD4
:1001FE0001F00A52D8B406EF01F008EF01F0D880F2
:0E020E001200D8901200D880D884120012007E
:0C021C0045905AC05EF024DF45801200BF
:100228000D6A086A0050D8B4000C04180A6E0ABE99
:100238000D1E0B6A04AE02D0041E042A00AE02D0C2
:10024800001E002A005004100A6E0ABE1FD0045077
:10025800085E003600340836045008260036060EBC
:100268000C6E00340836045000B0085E00A0082662
:1002780000360C2EF6D700A008260BB015D00DAE10
:10028800000C001E002A081E082A000C04AE09D023
:1002980000BE04D00050086E006AF1D7006A002A38
:1002A800000C001E0B2AD3D7082A0450085CD8A4D7
:0E02B800E6D7086A002A00AEE2D7FF0C12005B
:1002C600086A096A000E07620364E8EF01F002504B
:1002D60006180A6E075003267E0ED8A079EF01F0A5
:1002E600035ED8B0ECEF01F07DEF01F0035ED8A01D
:1002F600F0EF01F0028E068E02C00EF001C00BF088
:1003060000C00DF000500402F4CF0CF001500502BD
:10031600F4CF00F0F3CF08F00402F3500C26F450AB
:100326000822000E00220D500502F3500C26F45050
:100336000822000E002202500402F3500826F45050
:10034600002202500502016A000E0122F350002627
:10035600F45001220D500602F3500826F4500022F4
:10036600026A000E012202220B500602F3500026FA
:10037600F4500122000E02220E500602F35001260E
:10038600F450022202BED0EF01F0083600360136E4
:1003960002360306D8B4F0EF01F0E3EF01F0D8809F
:1003A600800E08640030000E002201220222D8A02E
:1003B600E3EF01F0023201320032034AECEF01F0C2
:1003C6000AAE029E000EF2EF01F0010E45DEF2EFDC
:1003D60001F0020E35DEF2EF01F0040E82DE1200AD
:1003E6000CB035EF02F00CA2DBEF02F00E6A000E45
:1003F60002644CEF02F0F00E0214D8A417EF02F0DC
:10040600023A01380F0B02260138F00B016E003854
:100416000F0B01260038F00B006E08380F0B002674
:100426000838F00B086E0E84D89002BE30EF02F04A
:1004360008360036013602360E2A02BE30EF02F0CA
:1004460008360036013602360E2A02BE30EF02F0BA
:1004560008360036013602360E2A0E500364D1EFF6
:1004660002F0035E0BBC08AED6EF02F0D880800E19
:1004760008640030000E002201220222D8A0D6EF26
:1004860002F0023201320032034ADBEF02F0D6EF0D
:1004960002F001C002F000C001F008C000F0086AD6
:1004A600000E0E86026483EF02F0F00E0214D8A44A
:1004B6006BEF02F0023A01380F0B02260138F00BFF
:1004C600016E00380F0B01260038F00B006E0E840B
:1004D600D89002BE30EF02F00036013602360E2A00
:1004E60002BE30EF02F00036013602360E2A02BE98
:1004F60030EF02F00036013602360E2A30EF02F0F7
:1005060001C002F000C001F0006A000E0E960E88CF
:100516000264B0EF02F0F00E0214D8A49BEF02F0D2
:10052600023A01380F0B02260138F00B016E0E84D9
:10053600D89002BE30EF02F0013602360E2A02BE15
:1005460030EF02F0013602360E2A02BE30EF02F01C
:10055600013602360E2A30EF02F001C002F0016ABF
:10056600000E0E860264E0EF02F0F00E0214D8A42C
:10057600BFEF02F0023A0E84D89002BE30EF02F0CE
:1005860002360E2A02BE30EF02F002360E2A02BEF4
:1005960030EF02F002360E2A30EF02F0010E0C6E3A
:1005A600A0DDE3EF02F0020E0C6E46DDE3EF02F093
:1005B600040E0C6E45DDE3EF02F0080E0C6E4CDD0A
:0205C600120021
:0805C8000B6A0B86FF0E120006
:1005D0000900F5CFE6FF0006FBE10106F9E1120094
:1005E0000000000000000000C282000000000000C7
:1005F0000000C3CF43F0000E446EC4CF46F0000E9F
:04060000476E12002F
:10060400959295909598959A959C959E83928390B2
:10061400839E839C839A839801DD00DDFFDC838ABB
:1006240083888382F9DC8392F9DC8382F5DC83920C
:10063400F5DC8382F1DC8392F1DC83988382ECDC49
:100644008392ECDC8382E8DC8392839A838E8382B8
:10065400E3DC8392E3DC839E83888382DDDC839204
:1006640083988382D9DC8392D9DC8382D5DC83921C
:1006740083888382D1DC8392D1DC83988382CCDC2F
:100684008392838E838C838A83888382C5DC83925E
:06069400C5DC45801200E8
:10069A000050086E0150006E0250016E0350026E47
:1006AA00036A0B6A0C6A9E0E036E0A6A020E0C6ECD
:0406BA0095DE1200B7
:1006BE00556A566A576A586A596A48C051F049C015
:1006CE0052F04AC053F04BC054F05450FF0A08E1A8
:1006DE005350FF0A05E15250FF0A02E15150FF0A42
:1006EE000CE14CC05AF04DC05BF0170E5C6E000E64
:1006FE005D6E00DD030E006E58D2010E4F6E53AECE
:10070E000FD0800E5318006E00C053F04F2A562A99
:10071E004CC0E1FF4DC0E2FF2D0EE66E4C4A4D2A55
:10072E00000E006E541808E10050531805E10050F9
:10073E00521802E15150000A0BE14CC05AF04DC064
:10074E005BF0150E5C6E000E5D6ED4DC006A2DD271
:10075E005450FF0A08E15350000A05E15250000AB6
:10076E0002E15150000A0CE14CC05AF04DC05BF052
:10077E00290E5C6E000E5D6EBDDC4FC000F015D212
:10078E00000E046E000E056E000E066E7F0E076ED6
:10079E0051C000F052C001F053C002F054C003F03B
:1007AE00CFDC010ED8B0000E006E00521BE051C01F
:1007BE0000F052C001F053C002F054C003F0000E1E
:1007CE00046E000E056E200E066E820E076E74DD30
:1007DE0000C051F001C052F002C053F003C054F0FB
:1007EE005906CED7000E046E000E056E200E066E54
:1007FE00820E076E51C000F052C001F053C002F0DD
:10080E0054C003F09DDC000ED8B0010E006E0052F5
:10081E001BE051C000F052C001F053C002F054C0B2
:10082E0003F0CD0E046ECC0E056E4C0E066E7B0ED6
:10083E00076E42DD00C051F001C052F002C053F00D
:10084E0003C054F0592ACED7FF0E5114086EFF0E76
:10085E005214096E7F0E53140A6E000E54140B6E52
:10086E0008C004F009C005F00AC006F00BC007F07E
:10087E0004360490053606360736000E5114006E07
:10088E00000E5214016E000E5314026EFF0E54141D
:10089E00036E00C051F001C052F002C053F003C00D
:1008AE0054F004505110006E05505210016E065057
:1008BE005310026E07505410036E00C051F001C069
:1008CE0052F002C053F003C054F07F0E545C006E21
:1008DE0000C050F0010E546E00C004F051C000F084
:1008EE0052C001F053C002F054C003F0045007E0B0
:1008FE0000360090013602360336FF0FF8D700C0DF
:10090E0051F001C052F002C053F003C054F04CC07D
:10091E00E1FF4DC0E2FF5450300FE66E4C4A4D2AB7
:10092E00562A800E5918006E800E010A005C08E3EC
:10093E00800E060A006E800E5918005C01E30BD083
:10094E004CC0E1FF4DC0E2FF2E0EE66E4C4A4D2A22
:10095E00010E556E562A060E506E5050000A58E083
:10096E00546A51C000F052C001F053C002F054C09E
:10097E0003F0003600900136023603360036009042
:10098E000136023603365150002652500122535082
:10099E0002225450032200C051F001C052F002C096
:1009AE0053F003C054F051C000F052C001F053C0D8
:1009BE0002F054C003F000360090013602360336C2
:1009CE0000C051F001C052F002C053F003C054F009
:1009DE004CC0E1FF4DC0E2FF5450300FE66E4C4A62
:1009EE004D2A562A5550000A11E159065950000A4F
:1009FE000DE1010E586E4CC0E1FF4DC0E2FF2E0E10
:100A0E00E66E4C4A4D2A010E556E562A5006A5D753
:100A1E005850010AD8B45606FF0E4C24E96EFF0E4C
:100A2E004D20EA6EEE502E0A05E1010E4C5E000ED0
:100A3E004D5A5606800E000A006E800E5918005C44
:100A4E0002E2010E576E800E5918006E800E000ADB
:100A5E00005C02E2020E576E59C050F0800E090A79
:100A6E00006E800E5918005C02E3572A02D0020E67
:100A7E00572657505624016E026A000E0222800E2F
:100A8E000218006E800E005C02E14E50015C0AE21C
:100A9E004CC0E1FF4DC0E2FF300EE66E4C4A4D2ACF
:100AAE00562AE7D75950000A43E04CC0E1FF4DC02B
:100ABE00E2FF650EE66E4C4A4D2A800E5918006E06
:100ACE00800E000A005C0BE24CC0E1FF4DC0E2FF5D
:100ADE002D0EE66E4C4A4D2A59500008596E59C0DB
:100AEE0050F0800E090A006E800E5918005C0FE25D
:100AFE000A0E046E50C000F014EC01F04CC0E1FF81
:100B0E004DC0E2FF0050300FE66E4C4A4D2A0A0EE1
:100B1E00046E50C000F014EC01F008C000F04CC0A0
:100B2E00E1FF4DC0E2FF0050300FE66E4C4A4D2AF9
:100B3E0057505624006E00C056F04E50005C016EA9
:100B4E0001C050F0800E000A006E800E0118005C8D
:100B5E000EE2800E000A006E800E5018005C06E257
:100B6E005006010E4C5E000E4D5AF3D718D0800E73
:100B7E005018006E800E000A005C11E2800E5018B4
:100B8E00006E800E000A005C0AE2502A4CC0E1FFA3
:100B9E004DC0E2FF300EE66E4C4A4D2AEFD74CC0E8
:0C0BAE00E1FF4DC0E2FFE66A006A1200A1
:100BBA000450000A12E10550000A0FE10650000A2B
:100BCA000CE10750000A09E1FF0E006EFF0E016EEC
:100BDA007F0E026EFF0E036EA7D0086A096A0750DD
:100BEA00D8B488EF06F00350D8B48CEF06F0025060
:100BFA0006180A6E028E068E0E6A02C008F001C03E
:100C0A000CF000C00DF004500D5E0550D8A0053C54
:100C1A000C5E0650D8A0063C085E086A0C6A0D6A8B
:100C2A00D8A01FEF06F0D890023201320032083203
:100C3A00010E0E6E0750035ED8A02CEF06F07E0E52
:100C4A000E240326D8B091EF06F032EF06F07E0E9E
:100C5A000E240326D8A096EF06F0180E0B6E0D365A
:100C6A000C3608360036013602360E360450005E5F
:100C7A000550D8A0053C015E0650D8A0063C025E8D
:100C8A0006340E120EA04DEF06F00D8058EF06F056
:100C9A00045000260550D8B0053C01260650D8B0AD
:100CAA00062802260D900B2E34EF06F07EEF06F092
:100CBA00D8900036013602360E360450005E0550D2
:100CCA00D8A0053C015E0650D8A0063C025E063458
:100CDA000E10010B0D26D8B00C2AD8B4082AD8A4B5
:100CEA007EEF06F008320C320D32032AD8B491EFA7
:100CFA0006F00AAE089E0850026E0C50016E0D50A6
:100D0A00006E99EF06F0010E5ADC99EF06F0020E1A
:100D1A002FEC00F099EF06F0040E23EC00F099EFA7
:0A0D2A0006F0080E74EC00F0120051
:100D34000FD0800E486E19D0C00E486E16D0940E97
:100D4400486E13D0D40E486E10D0800E486E0DD06D
:100D54004850010AEEE04850020AEEE04850030A07
:100D6400EEE04850040AEEE0F0D74904006E485023
:100D7400002600C048F000C05EF036EC00F045905C
:100D84004C6A4C504A24E96E000E4B20EA6EEE5237
:100D94000CE04C504A24E96E000E4B20EA6EEECF74
:0E0DA4005AF00EEC01F04C2AECD745801200FC
:100DB20063EC07F026DC0C0E5E6E36EC00F00E0ED5
:100DC200C16EC26A940EC06EC28009DC46C001F0D8
:100DD200006A005043242D6E015044202E6E000EF6
:100DE2002F6E306E2DC000F02EC001F02FC002F029
:100DF20030C003F051DCAD0E046EAA0E056E4C0E2F
:100E0200066E860E076ED8DE00C03FF001C040F0CD
:100E120002C041F003C042F000C048F001C049F0F6
:100E220002C04AF003C04BF0310E4C6E000E4D6E04
:100E3200060E4E6E43DC486A050E496E1B0E4A6E64
:100E4200000E4B6E76DF020E486E040E496E310EB6
:100E52004A6E000E4B6E6DDF020E486E090E496E31
:100E6200220E4A6E000E4B6E64DFFF0E826E030E80
:100E72000B6E8A0E0C6E550E0D6E0D2EFED70C2EBD
:100E8200FCD70B2EFAD700000000826A030E0B6E0D
:100E92008A0E0C6E550E0D6E0D2EFED70C2EFCD743
:0C0EA2000B2EFAD70000000090D7FFD7FD
:100EC60010EE15F0180E006E010E016EAE0EF66EE7
:0E0ED6000E0EF76E000EF86EE8EC02F0120041
:020EAE00300012
:040EB0004E614E0041
:070EB40054454E53414F006D
:070EBB0020566F6C747300F8
:040EC200494E46004F
:020000040030CA
:0E000000000C1E1EFF8381FF0FC00FE00F409B
:00000001FF
