:10000000FAEF00F00000000000EF00F00000000038
:0C0010000000000000000000EEEF00F017
:0E001C00026A016A006A086A036A000E120096
:10002A000B840BAE20EF00F0010E036E026A016A28
:0A003A00006A0A360232FF0E1200BF
:080044000AAE029E000E12003C
:10004C000C6A0E6A0250D8A43FEF00F001C002F017
:10005C0000C001F0006A0E860250D8A43FEF00F0F9
:10006C0001C002F0016A0E960E880250D8B451EF0E
:10007C0000F00E50035ED8A4D8A056EF00F0D89034
:10008C0002BE5BEF00F0003601360236032E46EF5F
:10009C0000F056EF00F0010E0C6EBADF5EEF00F0D0
:1000AC00020E0C6EBCDF5EEF00F0040E0C6EC4DFB3
:0200BC00120030
:1000BE000050086E0150006E016A026A036A0B6AF4
:1000CE000C6A960E036E0A6A00C001F008C000F0BA
:0800DE00086A026AB4DF120097
:0600E60000000000120002
:1000EC000F0E0C6E470E0D6E0D2EFED70C2EFCD780
:0600FC00000000001200EC
:100102009398939A93909392939493968198819AC9
:100112008196819481928190E8DFE7DFE6DF818238
:1001220081808188DFDF8198E0DF8188DBDF819851
:10013200DCDF8188D7DF8198D8DF81908188D2DFA8
:100142008198D3DF8188CEDF8198819281868188F0
:10015200C9DF8198CADF819681808188C3DF819857
:1001620081908188BFDF8198C0DF8188BBDF819861
:1001720081808188B7DF8198B8DF81908188B2DF82
:10018200819881868184818281808188ABDF819898
:06019200ACDF208012002A
:10019800C2809E9C9D8C820E0C6EDD0E0D6E0D2E07
:1001A800FED70C2EFCD700000000C282C2A201D0EC
:1001B800FDD79EBC01D0FDD7C3CF00F0C4CF01F05E
:1001C8007ADF00C018F001C019F002C01AF003C0AD
:0401D8001BF0120006
:1001DC00156ED8CF16F0E0CF17F01750E06E165012
:0801EC00D86E153A1538100019
:1001F4009A0E1C6E990E1D6E390E1E6E7E0E1F6EAB
:100204007EDFC00EF26EB00EF16EF06ACD90CD8A34
:10021400CD883C0ECF6E240ECE6ECD800F0EC16EF7
:10022400C26A060EC16E900EC06EB4DF020E0B6E73
:10023400860E0C6E990E0D6E0D2EFED70C2EFCD76D
:080244000B2EFAD7F3D7FFD708
:020000040030CA
:0E000000004C1F1EFF0785FF0FC00FE00F40D2
:00000001FF
