:0400000078EF04F0A1
:1000080000C017F001C016F002C015F0E1CF18F0DB
:10001800E2CF19F0CD909E90215202E0210640D007
:10002800640E216E566A5EDBC3CF00F0C4CF01F0C8
:1000380045DB9A0E046E990E056E010E066E800E53
:10004800076E55D96EDB00C01FF001C020F000C05C
:1000580056F001C057F02A0E586E000E596ED8DBC4
:10006800000E205C02E1480E1F5C04E2FF0E566E93
:10007800F8D916D0000E205C02E14B0E1F5C04E29A
:100088007F0E566EEED90CD0000E205C02E1500EA9
:100098001F5C04E2400E566EE4D902D0566AE1D9DC
:1000A800CF6ACE6ACD8017C000F016C001F015C027
:0C00B80002F018C0E1FF19C0E2FF1100C7
:1000C400086A096A100E0C6E0134083609360450A9
:1000D400085E0550D8A0053C095ED8B007D004508E
:1000E40008260550D8B0053C0926D89000360136BC
:0600F4000C2EEAD71200F9
:1000FA000B840BAE88EF00F0010E036E026A016AF0
:0A010A00006A0A360232FF0E1200EE
:080114000AAE029E000E12006B
:0E011C00026A016A006A086A036A000E120095
:10012A00C7B409D01F0EC514016E0150000A03E1BD
:0A013A00010E006E01D0006A1200F1
:10014400F250026EF29E0500FF6A0150FE6E0050EE
:08015400FD6E02BEF28E1200E6
:08015C000B6A0B86FF0E120076
:100164000C6A0E6A0250D8A4CBEF00F001C002F072
:1001740000C001F0006A0E860250D8A4CBEF00F054
:1001840001C002F0016A0E960E880250D8B4DDEF69
:1001940000F00E50035ED8A4D8A0E2EF00F0D8908F
:1001A40002BEE7EF00F0003601360236032ED2EF2E
:1001B40000F0E2EF00F0010E0C6EAEDFEAEF00F0AB
:1001C400020E0C6E98DFEAEF00F0040E0C6EA0DF56
:0201D400120017
:1001D6000B820BAEF5EF00F0036802680168006859
:0801E6000A360232FF0E12007E
:1001EE000B800BAE03EF01F0026A0AAEFF0E026E39
:0C01FE00016E006E0A360232FF0E120085
:10020A000B6A0A6A096A00500402F4CF09F0F3CFB4
:10021A0008F001500502F4CF0BF0F3CF0AF00050BA
:10022A000502F3500926F4500A22E86A0B2201500B
:10023A000402F3500926F4500A22E86A0B2208C085
:10024A0000F009C001F00AC002F00BC003F012006E
:10025A000001606B050E605D0AE260516325E16E84
:10026A00000E6421E26E200EE66E602BF3D7605119
:10027A006325E16E000E6421E26EE66A6007605152
:10028A006325656F000E6421666F0A0E046E000E08
:10029A00056E61C000F062C001F00FDF08C000F017
:1002AA0009C001F0300E002665C0E1FF66C0E2FF1A
:1002BA0000C0E6FF0A0E046E000E056E61C000F073
:1002CA0062C001F0FADE00C061F001C062F0000E07
:1002DA00011802E1000E001801E102D06007CFD731
:0202EA00120000
:0A02EC00070E0D6E0D2EFED7120056
:1002F6000450000A12E10550000A0FE10650000AF8
:100306000CE10750000A09E1FF0E006EFF0E016EB8
:100316007F0E026EFF0E036EA4D0086A096A0750AC
:10032600D8B426EF02F00350D8B42AEF02F00250F8
:1003360006180A6E028E068E0E6A02C008F001C00A
:100346000CF000C00DF004500D5E0550D8A0053C21
:100356000C5E0650D8A0063C085E086A0C6A0D6A58
:10036600D8A0BDEF01F0D890023201320032083237
:10037600010E0E6E0750035ED8A0CAEF01F07E0E86
:100386000E240326D8B02EEF02F0D0EF01F07E0E39
:100396000E240326D8A032EF02F0180E0B6E0D368F
:1003A6000C3608360036013602360E360450005E2C
:1003B6000550D8A0053C015E0650D8A0063C025E5A
:1003C60006340E120EA0EBEF01F00D80F6EF01F0F1
:1003D600045000260550D8B0053C01260650D8B07A
:1003E600062802260D900B2ED2EF01F01CEF02F02C
:1003F600D8900036013602360E360450005E05509F
:10040600D8A0053C015E0650D8A0063C025E063424
:100416000E10010B0D26D8B00C2AD8B4082AD8A481
:100426001CEF02F008320C320D32032AD8B42EEF3C
:1004360002F00AAE089E0850026E0C50016E0D5076
:10044600006E34EF02F0010E86DE34EF02F0020E8B
:1004560062DE34EF02F0040EBBDE34EF02F0080E6B
:0404660049DE120059
:10046A00CB50010F006E016A000E012256C004F043
:10047A00000E056EC5DE060E026E00C004F001C055
:10048A0005F0025005E005320432059EFF0FFAD747
:10049A00040E016E04C000F0015004E00036009022
:1004AA00FF0FFBD7300E0014036E04C000F005C026
:1004BA0001F001320032019E01320032019E00C079
:0C04CA00BEFF0F0EBD160350BD12120045
:1004D6002A0E446E010E456E000E466E000E476EE5
:1004E6004C0E3C6E050E3D6E000E3E6E000E3F6ECF
:1004F600FF0E266EFF0E276E000E286E000E296E6A
:10050600FF0E226EFF0E236EFF0E246EFF0E256E6B
:10051600D40E4C6E050E4D6E500E4E6E000E4F6E86
:10052600040E406E080E416E000E426E000E436EC3
:10053600939093928A908A9293809382C79EC79C47
:06054600380EC66E120023
:10054C001BC052F01CC053F01DC054F01EC055F01F
:10055C00506A516A5150120802E150508E0807E35C
:10056C00DEDD005201E003D0504A512AF3D7120EBF
:10057C00515C02E18F0E505C03E37B0E006E23D0C6
:10058C00C580C5A01FD01B501C101D101E1019E0DB
:10059C0052505310541055100EE14AC0E1FF4BC09D
:1005AC00E2FF050EE66E48C000F049C001F0C4DD64
:1005BC00010E006E08D0010E525E000E535A545AB2
:0805CC00555ADFD7006A120046
:1005D4009E9650C0C9FF1BC051F01CC052F01DC0F4
:1005E40053F01EC054F0C7A41FD01B501C101D1084
:1005F4001E1019E051505210531054100EE14AC00D
:10060400E1FF4BC0E2FF040EE66E48C000F049C0B3
:1006140001F096DD010E006E37D0010E515E000E22
:10062400525A535A545ADFD71BC051F01CC052F0CF
:100634001DC053F01EC054F09EB61FD01B501C109A
:100644001D101E1019E051505210531054100EE199
:100654004AC0E1FF4BC0E2FF040EE66E48C000F062
:1006640049C001F06DDD010E006E0ED0010E515E29
:10067400000E525A535A545ADFD7C5BC02D0006AEE
:0A06840003D0C584020E006E1200C0
:0A068E009494CA840C0EBD121200F1
:08069800BE6ABD98BD9A120074
:1006A000FF0E386EFF0E396EFF0E3A6EFF0E3B6E78
:1006B000C26A1A1C006E0050C116070EC012C08E0E
:0406C000C2801200E2
:1006C4000050086E0150006E016A026A036A0B6AE8
:1006D4000C6A960E036E0A6A00C001F008C000F0AE
:0806E400086A026A3DDD120004
:1006EC00C26A1A1C006E0050C116070EC012C08ED2
:1006FC0056C000F000360090003600900050C21238
:10070C00C280EEDDC282C2A201D0FDD7C4CF01F0FF
:0E071C00006AC3500012000E0112C2901200BB
:10072A000B6A0C6A0A6A0350D8B4DFEF03F0028E30
:10073A008E0E035E03BEA7EF03F0D8B4A7EF03F053
:10074A00E3EF03F0036C080E035CD8A0BEEF03F0DE
:10075A00036E013602C001F0026A080E035CD8A0DB
:10076A00BEEF03F00136016A0350D8A4D890C8EF4F
:10077A0003F00350D8B4C8EF03F0D8900232013224
:10078A00032EC2EF03F00BBC01A0D5EF03F0D8A0F3
:10079A00D5EF03F0012AD8B4022A02BEF2EF03F021
:1007AA000AAEF7EF03F0021E011E012AD8B4022A8C
:1007BA00F7EF03F0026A016AF7EF03F00B800BAE62
:1007CA00FBEF03F0026A0AAEFBEF03F0FF0E026EC4
:1007DA00016E0A360232FBEF03F0010E0C6E02DDE7
:1007EA00FDEF03F0000E0C6EFDEF03F0FF0E0C6E32
:0A07FA000150006E0250016E120063
:04080400C584120095
:100808000900F5CFE6FF0006FBE10106F9E1120059
:100818005C6A5D6A56C05EF057C05FF0800E57187C
:10082800006E800E005C02E1000E565C0BE2010EC9
:100838005C6E000E5D6E565000085E6E57C05FF02D
:10084800000E5F565EC061F05FC062F058C063F092
:1008580059C064F0FEDC060E5A6E000E5B6E000E88
:10086800006E5B50005C02E15A50000819E25A50D1
:100878005824E16E5B505920E26E010E5A5C006EFE
:10088800000E5B58016E00505824E96E0150592043
:10089800EA6EEECFE6FF010E5A5E000E5B5ADFD716
:1008A80058C0E1FF59C0E2FF200EE66E5C505D10B3
:1008B8001AE05A6A5B6A5A505824E96E5B5059200C
:1008C800EA6EEE50200A03E15A4A5B2AF4D7010E79
:1008D8005A5E000E5B5A5A505824E16E5B505920FC
:0808E800E26E2D0EE66E120017
:1008F0009FEC04F0010E926E936A946A956AF19EE1
:10090000CFDECA80CA92630ECB6EC6DEC0DED09E3A
:10091000F19EF28EF28C9D800A0EC86EDCDD16DE32
:10092000020E506E57DE020E506E54DE0A0E506EEE
:0809300051DE68DF9E80FFD755
:10093E0010EE1AF0050E006E010E016E380EF66EF8
:0E094E00090EF76E000EF86E04EC04F01200B5
:01093800308E
:0409390000000000BA
:020000040030CA
:0E000000000C1E1EFF8381FF0FC00FE00F409B
:00000001FF
