:02000000232AB1
:10000800FF00030E8301C5000A08C4008A017C08AA
:10001800A1007D08A0000408A2000F08BE00BF01CF
:100028000E08C200C301400841040319202801300A
:10003800C002031CC1034E281010023086063E0879
:10004800B300B2014208B20743080318013EB307E0
:10005800C6010330C7002330C80089210230C6001A
:100068000A30C7002F30C80089213208C60033087B
:10007800C7003430C8001F210230C6000330C70053
:100088003430C80089218F018E010F30C000003044
:10009800C10010148C10BE3091002108FC0020080B
:1000A800FD002208840044088A00450E8300FF0EE4
:0400B8007F0E0900AE
:1000BC00103083120313FD00FD0B622800000800B2
:0400CC000000080028
:1000D000083083120313FC002330FD00FD0B6E2853
:0600E000FC0B6E28080075
:1000E60083120313F801F9011030FC00710DF80DAD
:1000F600F90D7408F8027508031C750FF902031848
:100106008B287408F80775080318750FF90703108C
:0A011600F00DF10DFC0B7928080034
:1001200083120313D41B9628861397288617541B13
:100130009B2886129C288616D41AA0280612A1286D
:100140000616541AA5288611A62886153B18AA2833
:100150000614AB280610061566200611D419B2281D
:100160008613B32886175419B7288612B82886161E
:10017000D418BC280612BD2806165418C1288611AA
:10018000C22886153B18C6280614C728061006156F
:10019000662006113B1CCE286820CF285E20080070
:0E01A000831203133D088A003C088200080009
:1001AE0083120313D201053052020318E5285208B8
:1001BE005107840020308000D20ADA2852085107F5
:1001CE0084008001D20352085107D3000A30F40094
:1001DE00F5014F08F0005008F10073207808F00088
:1001EE007908F1003030F007530884007008800061
:1001FE000A30F400F5014F08F0005008F1007320AA
:10020E007008CF007108D00000307106031D11294F
:10021E0000307006031D14291629D203EA2808009F
:10022E00831203133B104F08D40090203B14080098
:10023E0083120313CB01CC014608CD004708CE0034
:10024E0080304706F00080307002031D30290030E8
:10025E00460203183E290130CB000030CC00460880
:10026E00003CCD004708031C013ECE01CE024D08D6
:10027E00CF004E08D0004808D100D7200630C90064
:10028E000030CA004A08003C031D4F294908003CB3
:10029E0003186A2949084807F20001304902F000A4
:1002AE000030031C013E4A02F1007008480784002A
:1002BE000008F00072088400700880000130C90246
:1002CE00031CCA03492948088400203080004B08CB
:1002DE004C0403198829C901CA014908480784003A
:1002EE000008203A031D7F29C90A0319CA0A742976
:1002FE000130C902031CCA034908480784002D3087
:04030E008000080063
:100312009B29803083120313C600AE29C030C60069
:10032200AE299430C600AE29D430C600AE29803042
:10033200C600AE29831203134608013A03198A291B
:100342004608023A03198F294608033A03199229EB
:100352004608043A0319952998294703F0004608EC
:10036200F0077008C6007008D40090203B10C90145
:1003720049084807840000080319C72949084807A3
:1003820084000008CF001721C90AB9293B140800CC
:10039200831603130611061086110612861286139F
:1003A2008312061106108613861206128611682021
:1003B2006820682006168615061566200611682034
:1003C20006156620061168200615662006116820AB
:1003D200861106156620061168200615662006118C
:1003E20006128617061566200611682086138615E2
:1003F200061566200611861106156620061168206C
:100402000615662006118615061566200611682057
:10041200861106156620061186178616061686159B
:0C04220006156620061168203B14080037
:10042E00D0208A110A128000840ABC0A0319BD0A60
:08043E00F003031D172A08005A
:10044600463083120313A3005230A4004530A500A2
:100456005130A6005530A7004530A8004E30A900FF
:100466004330AA004930AB004130AC003A30AD0011
:10047600AE014830AF007A30B000B1010B308316C0
:100486008E0040308600C0308B0002308C00073072
:1004960083129F00033090007F309200C921522AB8
:02400E004A2145
:00000001FF
