:020000040000FA
:0200000047288F
:040002000034003492
:08000800A000030EA1000B197A
:100010000A283C280B110F3005058207000018281C
:100020001A281C281F282328252829282E2831286B
:100030000B303328883033280000B23033280000DA
:100040000000C7303328D330332800000000DC30F4
:100050003328000000000000E23033280000E630C2
:1000600033280000E9308100861B38288617422893
:10007000861342288B1C42288B10861C4128861030
:1000800042288614210E8300A00E200E090083163C
:10009000003085000530860011308100B0308B00C3
:1000A0008312850186010130A20022088500E63016
:1000B000A40006195528A40B5928231C6528A2035F
:1000C00001302202031923106A28A20A09302202F1
:0E00D0000319231422088500061D6C285528EC
:02400E000200AE
:00000001FF
