:02000000A7282F
:10000800CF00030E830194000A0895008A01400876
:100018008C000B1D86280B11412883120E3081009D
:1000280082288312000000008D308100822883120C
:10003800B830810082288312CF3081008228831251
:10004800DE308100822883120000000000000000DA
:10005800E93081008228831200000000F03081001E
:100068008228831200000000F73081008228831262
:1000780000000000FA308100822800300F06031DBE
:10008800472801300E060319112800300F06031DFA
:100098004F2802300E060319152800300F06031DDD
:1000A800572803300E0603191B2800300F06031DBE
:1000B8005F2804300E0603191F2800300F06031DA1
:1000C800672805300E060319232800300F06031D84
:1000D8006F2806300E060319272800300F06031D67
:1000E800772807300E0603192F2800300F06031D46
:1000F8007F2808300E06031935283B2883128030E4
:1001080086068C288B1C8C2883128B10023086065E
:100118000C08C00015088A00140E8300CF0E4F0E7D
:020128000900CC
:0C012A00831213088A00120882000800EB
:1001360095208A110A128000840A920A0319930AEA
:08014600C003031D9B28080003
:10014E0083128D0101308E008F01E63090009101F7
:10015E00831685010530860011308100B0308B008A
:10016E008312850186010E088500E630900091010C
:10017E000619CE281108003C031DC7281008003CA4
:10018E000318CE2801309002031C9103BF280619D4
:10019E00FB2800301106031DD62800301006031D63
:1001AE00FB280D080319E92801308E02031C8F036A
:1001BE0000300F06031DE52801300E06031DE8284A
:1001CE008D01F6288E0A03198F0A00300F06031DC3
:1001DE00F22809300E06031DF62801308D000E0898
:0C01EE0085000619FB28F828BA28FC2818
:02400E00FA3F77
:00000001FF
