:0400000098EF01F084
:1000080000C018F001C017F00CC016F00DC015F0B4
:100018009EA021D0CD909E90365202E0360617D091
:10002800640E366E426A61D900C03BF001C03CF0F4
:100038003F50015C02E13E50005C02E2838407D03D
:100048003C50415C02E13B50405CD8A08394CF6AAD
:10005800CE6ACD804DD0F2A221D03D500008016E6D
:1000680001C03DF0800E000A006E800E0118005C91
:100078000AE2020E426E010E436E2E0E446E000E10
:10008800456E99D809D0020E426E010E436E240EB9
:10009800446E000E456E8FD8F2922AD0000E3F189B
:1000A80002E1960E3E1812E1A40E3E6E000E3F6E5F
:1000B800A80E406E000E416E020E426E0B0E436E8D
:1000C800190E446E000E456E76D811D0960E3E6E0F
:1000D800000E3F6E980E406E000E416E020E426E8C
:1000E8000B0E436E1F0E446E000E456E64D8F090E2
:1000F80018C000F017C001F016C00CF015C00DF0C4
:020108001100E4
:10010A00080E0C6E230E0D6E0D2EFED70C2EFCD78C
:02011A001200D1
:04011C0000001200CD
:0C012000100E0D6E0D2EFED70000120018
:10012C0048BE02D0829C01D0828C48BC02D0829AFC
:10013C0001D0828A48BA02D0829801D0828848B80D
:10014C0002D0829401D0828435B002D0828001D05A
:10015C0082908282DDDF829248B602D0829C01D0EE
:10016C00828C48B402D0829A01D0828A48B202D0E2
:10017C00829801D0828848B002D0829401D08284C7
:10018C0035B002D0828001D082908282C1DF82920F
:0C019C0035A002D0B4DF01D0BDDF12009E
:0A01A800070E0D6E0D2EFED712009B
:0C01B200359047C048F0B9DF35801200DE
:1001BE000FD0800E426E19D0C00E426E16D0940E25
:1001CE00426E13D0D40E426E10D0800E426E0DD001
:1001DE004250010AEEE04250020AEEE04250030A9B
:1001EE00EEE04250040AEEE0F0D74304006E4250B7
:1001FE00002600C042F000C048F091DF3590466AFC
:10020E0046504424E96E000E4520EA6EEE520BE095
:10021E0046504424E96E000E4520EA6EEECF47F0BC
:0A022E00C1DF462AEDD7358012002B
:10023800F20E376E020E386E420E396E000E3A6EAE
:10024800C26A1E1C006E0050C116070EC012C08E76
:04025800C28012004E
:10025C009492949094949498949A949C8292829070
:10026C00829C829A829882944ADF49DF48DF828896
:10027C00828482824DDF829242DF828249DF8292C7
:10028C003EDF828245DF82923ADF8294828240DFB7
:10029C00829235DF82823CDF82928298828C8282CB
:1002AC0037DF82922CDF829C8284828231DF8292C1
:1002BC00829482822DDF829222DF828229DF8292D7
:1002CC008284828225DF82921ADF8294828220DFEE
:1002DC008292828C828A82888284828219DF8292C4
:0602EC000EDF3580120058
:1002F200830EC21642C000F0003600900036009015
:100302000050C21250DFC282C2A201D0FDD7C4CFB8
:0E03120001F0006AC3500012000E011212002A
:100320000900F5CFE6FF0006FBE10106F9E1120046
:10033000C4EC01F0010E3D6E960E3E6E000E3F6E57
:10034000980E406E000E416E010E926E030E936E7B
:10035000956A72DF83DFD09EF19EF28EF28C9D80D3
:0C036000F288F0869E80F282F080FFD7C9
:1003880010EE19F01C0E006E010E016E6C0EF66E6A
:0E039800030EF76E000EF86E90EC01F01200EE
:05036C0038306F430072
:01037100305B
:0503720037326F43006B
:0A0377004465736C696761646F00F0
:070381004C696761646F0025
:020000040030CA
:0E000000000C1E1EFF8381FF0FC00FE00F409B
:00000001FF
