:0400000043EF01F0D9
:020008001100E5
:08000A000AAE029E000E120076
:100012000B840BAE14EF00F0010E036E026A016A4C
:0A002200006A0A360232FF0E1200D7
:0E002C00026A016A006A086A036A000E120086
:06003A00000000001200AE
:100040000F0E0C6E470E0D6E0D2EFED70C2EFCD72C
:0600500000000000120098
:0A005600210E0D6E0D2EFED71200D4
:100060000C6A0E6A0250D8A449EF00F001C002F0F9
:1000700000C001F0006A0E860250D8A449EF00F0DB
:1000800001C002F0016A0E960E880250D8B45BEFF0
:1000900000F00E50035ED8A4D8A060EF00F0D89016
:1000A00002BE65EF00F0003601360236032E50EF37
:1000B00000F060EF00F0010E0C6EB8DF68EF00F0AA
:1000C000020E0C6EA6DF68EF00F0040E0C6E9DDFD2
:0200D00012001C
:1000D20020BE02D0819601D0818620BC02D08194BC
:1000E20001D0818420BA02D0819201D0818220B8CD
:1000F20002D0819001D0818019B002D0818A01D0D2
:10010200819A818899DF819820B602D0819601D0A8
:10011200818620B402D0819401D0818420B202D0A1
:10012200819201D0818220B002D0819001D0818061
:1001320019B002D0818A01D0819A81887DDF8198AD
:0C01420019A002D07CDF01D085DF120084
:10014E000050086E0150006E016A026A036A0B6A63
:10015E000C6A960E036E0A6A00C001F008C000F029
:08016E00086A026A76DF120044
:0C01760019901FC020F0AADF19801200B1
:10018200C2809E9C9D8C820E0C6EDD0E0D6E0D2E1D
:10019200FED70C2EFCD700000000C282C2A201D002
:1001A200FDD79EBC01D0FDD7C3CF00F0C4CF01F074
:1001B200CDDF00C015F001C016F002C017F003C079
:0401C20018F012001F
:1001C6001E6A1E501C24E96E000E1D20EA6EEE52B9
:1001D6000BE01E501C24E96E000E1D20EA6EEECFC9
:0A01E6001FF0C6DF1E2AEDD712003D
:1001F0009398939A93909392939493968198819ADB
:1002000081968194819281901BDF1ADF19DF8182B0
:100210008180818812DF819813DF81880EDF8198C9
:100220000FDF81880ADF81980BDF8190818805DFED
:10023000819806DF818801DF81988192818681889B
:10024000FCDE8198FDDE819681808188F6DE8198D2
:1002500081908188F2DE8198F3DE8188EEDE8198DC
:1002600081808188EADE8198EBDE81908188E5DEFD
:10027000819881868184818281808188DEDE819877
:06028000DFDE1980120010
:10028600800E1A6E000E1B6EC00EF26EB00EF16E70
:10029600F06ACD90CD8ACD883C0ECF6E240ECE6E00
:1002A600CD800F0EC16EC26A060EC16E900EC06E74
:1002B60065DF9280936A9380010E936E96DF010E3E
:1002C6001C6E000E1D6E7CDF1AC01CF01BC01DF0DC
:1002D60077DF020E0B6E860E0C6E990E0D6E0D2ECE
:1002E600FED70C2EFCD70B2EFAD748DFF2D7FFD756
:020000040030CA
:0E000000004C1F1EFF0785FF0FC00FE00F40D2
:00000001FF
